:100000000C94DD020C9405030C9405030C94050379
:100010000C9405030C9405030C9405030C94050340
:100020000C9405030C9405030C9405030C94050330
:100030000C9405030C9405030C9405030C94050320
:100040000C94F5100C9405030C9405030C94050313
:100050000C9405030C9405030C9405030C94050300
:100060000C943F110C94050300000000003E5B4F10
:100070005B3E3E6B4F6B3E1C3E7C3E1C183C7E3C08
:10008000181C577D571C1C5E7F5E1C00183C180016
:10009000FFE7C3E7FF0018241800FFE7DBE7FF30A6
:1000A000483A060E2629792926407F050507407F14
:1000B00005253F5A3CE73C5A7F3E1C1C08081C1C87
:1000C0003E7F14227F22145F5F005F5F06097F017D
:1000D0007F006689956A606060606094A2FFA29468
:1000E00008047E040810207E201008082A1C080836
:1000F0001C2A08081E101010100C1E0C1E0C303884
:100100003E3830060E3E0E06000000000000005F84
:1001100000000007000700147F147F14242A7F2AA0
:100120001223130864623649562050000807030062
:10013000001C2241000041221C002A1C7F1C2A08AE
:10014000083E080800807030000808080808000011
:1001500060600020100804023E5149453E00427F85
:10016000400072494949462141494D331814127FD4
:100170001027454545393C4A494931412111090774
:100180003649494936464949291E000014000000F5
:1001900040340000000814224114141414140041C7
:1001A00022140802015909063E415D594E7C121184
:1001B000127C7F494949363E414141227F414141BC
:1001C0003E7F494949417F090909013E4141517337
:1001D0007F0808087F00417F41002040413F017FA8
:1001E000081422417F404040407F021C027F7F0470
:1001F00008107F3E4141413E7F090909063E4151B9
:10020000215E7F09192946264949493203017F01A8
:10021000033F4040403F1F2040201F3F4038403FA9
:10022000631408146303047804036159494D4300BF
:100230007F4141410204081020004141417F0402F6
:10024000010204404040404000030708002054548D
:1002500078407F284444383844444428384444286B
:100260007F385454541800087E090218A4A49C78BE
:100270007F0804047800447D40002040403D007F1A
:100280001028440000417F40007C047804787C08FA
:100290000404783844444438FC18242418182424CE
:1002A00018FC7C08040408485454542404043F44B3
:1002B000243C4040207C1C2040201C3C4030403CE2
:1002C00044281028444C9090907C4464544C440042
:1002D00008364100000077000000413608000201A6
:1002E0000204023C2623263C1EA1A161123A404092
:1002F000207A38545455592155557941225454780F
:1003000042215554784020545579400C1E527212A7
:100310003955555559395454545939555454580030
:1003200000457C410002457D420001457C407D1234
:1003300011127DF0282528F07C5455450020545496
:100340007C547C0A097F4932494949323A44444441
:100350003A324A4848303A4141217A3A424020787C
:10036000009DA0A07D3D4242423D3D4040403D3C7D
:1003700024FF2424487E4943662B2FFC2F2BFF09A2
:1003800029F620C0887E0903205454794100004496
:100390007D413048484A32384040227A007A0A0A81
:1003A000727D0D19317D2629292F282629292926F4
:1003B00030484D4020380808080808080808382F39
:1003C00010C8ACBA2F102834FA00007B00000814C3
:1003D0002A142222142A14085500550055AA55AA99
:1003E00055AAFF55FF55FF000000FF00101010FF39
:1003F00000141414FF001010FF00FF1010F010F094
:10040000141414FC001414F700FF0000FF00FF1484
:1004100014F404FC141417101F10101F101F1414D0
:10042000141F00101010F0000000001F101010101A
:100430001F10101010F010000000FF10101010100E
:1004400010101010FF10000000FF140000FF00FF4C
:1004500000001F10170000FC04F4141417101714E8
:1004600014F404F40000FF00F7141414141414140A
:10047000F700F7141414171410101F101F1414147D
:10048000F4141010F010F000001F101F0000001FE7
:1004900014000000FC140000F010F01010FF10FF1A
:1004A000141414FF141010101F00000000F010FFAF
:1004B000FFFFFFFFF0F0F0F0F0FFFFFF0000000093
:1004C00000FFFF0F0F0F0F0F3844443844FC4A4A17
:1004D0004A347E02020606027E027E0263554941CC
:1004E000633844443C04407E201E2006027E020203
:1004F00099A5E7A5991C2A492A1C4C7201724C3017
:100500004A4D4D303048784830BC625A463D3E49ED
:100510004949007E0101017E2A2A2A2A2A44445F91
:10052000444440514A444040444A51400000FF0185
:1005300003E080FF000008086B6B08361236243693
:10054000060F090F060000181800000010100030F8
:1005500040FF0101001F01011E00191D1712003C80
:100560003C3C3C000000000000000000240027008C
:100570002A00000000080002010000030407000038
:100580000000000000000102040810204080010269
:1005900004081020010204081020000000002500BB
:1005A00028002B00040404040404040402020202D0
:1005B00002020303030303035A1211241FBECFEFE9
:1005C000D8E0DEBFCDBF11E0A0E0B1E0EEEDF8E293
:1005D00002C005900D92A834B107D9F722E0A8E433
:1005E000B1E001C01D92A830B207E1F712E0CDEDF5
:1005F000D2E004C02197FE010E946214CC3DD107D5
:10060000C9F70E94FB120C946D140C940000AF9279
:10061000BF92CF92DF92EF92FF920F931F93CF93EF
:10062000DF936C017B018B01040F151FEB015E0151
:10063000AE18BF08C017D10759F06991D601ED91E6
:10064000FC910190F081E02DC6010995892B79F785
:10065000C501DF91CF911F910F91FF90EF90DF9037
:10066000CF90BF90AF90089590E0FC01EE58FA4F04
:100670002491FC01EA57FA4F3491FC01EC55FA4FF2
:10068000E491EE23C9F0222339F0233001F1A8F4DC
:10069000213019F1223029F1F0E0EE0FFF1FE6566C
:1006A000FA4FA591B4918FB7F894EC91611126C0DF
:1006B00030953E233C938FBF08952730A9F0283012
:1006C000C9F0243049F7809180008F7D03C080916C
:1006D00080008F7780938000DFCF84B58F7784BDD3
:1006E000DBCF84B58F7DFBCF8091B0008F77809377
:1006F000B000D2CF8091B0008F7DF9CF3E2BDACF02
:10070000CF93DF9390E0FC01EA57FA4F24918C5588
:100710009A4FFC0184918823D1F090E0880F991FB3
:10072000FC01E859FA4FA591B491FC01E656FA4F45
:10073000C591D49161110EC09FB7F8948C91E22FAE
:10074000E0958E238C932881E223E8839FBFDF917D
:10075000CF9108958FB7F894EC91E22BEC938FBF73
:10076000F6CF3FB7F8948091C0019091C101A0915C
:10077000C201B091C30126B5A89B05C02F3F19F057
:100780000196A11DB11D3FBFBA2FA92F982F882711
:10079000BC01CD01620F711D811D911D42E0660FEC
:1007A000771F881F991F4A95D1F708958F929F92BE
:1007B000AF92BF92CF92DF92EF92FF924B015C011A
:1007C0000E94B1036B017C010E94B1036C197D0989
:1007D0008E099F09683E734081059105A8F321E0C9
:1007E000821A9108A108B10888EEC80E83E0D81ECD
:1007F000E11CF11C81149104A104B10429F7FF90BC
:10080000EF90DF90CF90BF90AF909F908F90089522
:1008100020917101260F3327331F21323105ECF46B
:1008200020919501FC0190E080E0243069F082E0A5
:100830000895A09171012191AC014F5A5E4FA40F10
:10084000B52FB11D2C930196861798F380917101F5
:10085000680F6093710180E0089581E00895089524
:100860008FEF9FEF08958FEF9FEF089580914A01DA
:1008700090E09195819591090895CF93DF93CB01F5
:10088000EA01642F0E940804CE01DF91CF91089500
:10089000CF93DF931F92CDB7DEB7698361E0CE01BE
:1008A00001960E94080481E090E00F90DF91CF91C3
:1008B00008958FB7F894809148018FBF0895FC0187
:1008C000A5A1B6A18C9192A589238C93A5A1B6A1CF
:1008D0008C9191A5892B8C9308950F931F93CF939F
:1008E000DF93EC018B018DA981110DC01EBD0DB4EC
:1008F00007FEFDCF0EBD0DB407FEFDCFDF91CF91FA
:100900001F910F9108958130E9F480E1E9A1FAA1E6
:10091000908117FF14C02DA1922B9083EBA1FCA115
:1009200090812FA1922B9083EBA1FCA1908128A50F
:1009300092239083000F111F815041F7DFCF2EA12A
:100940009223EBCFEF8DF8A11083CE010E945F04BC
:10095000EF8DF8A10083CE01DF91CF911F910F9110
:100960000C945F04FC0185A9811105C06EBD0DB416
:1009700007FEFDCF08958130E1F488E0A1A1B2A186
:100980009C9167FF13C025A1922B9C93A3A1B4A1B6
:100990009C9127A1922B9C93660FA3A1B4A19C913B
:1009A00020A592239C93815049F7089526A1922374
:1009B000ECCFA78DB0A16C93CF010C945F041F9373
:1009C000CF93DF93EC01162FE881F9810284F38540
:1009D000E02D09951123D1F06DADED8DFE8D808157
:1009E0009CA989238083CE010E94B204ED8DFE8DE7
:1009F00080819BA9892B8083E881F9810688F7890A
:100A0000E02DCE01DF91CF911F9109946EADE5CF1E
:100A1000AF92BF92CF92DF92EF92FF920F931F930C
:100A2000CF93DF93EC0177FD38C0888599856817EF
:100A300079079CF557FD31C08A859B854817590772
:100A400064F569017A015B01E881F9810284F3852B
:100A5000E02DCE010995E881F98102A4F3A5E02DEE
:100A600001E010E021E030E0A701B501CE010995D9
:100A7000B601CE010E946D04E881F9810688F789EC
:100A8000E02DCE01DF91CF911F910F91FF90EF905C
:100A9000DF90CF90BF90AF900994DF91CF911F91DD
:100AA0000F91FF90EF90DF90CF90BF90AF9008959F
:100AB0008F929F92AF92BF92CF92DF92EF92FF926E
:100AC0000F931F93CF93DF93EC0149015701E88106
:100AD000F98102A4F3A5E02D09959401D8010E94A3
:100AE00044146B017C01C114D104E104F10409F444
:100AF00090C08DA9811115C081E0C81AD108E10804
:100B0000F1088FEFC816D806E806F80609F481C088
:100B1000BEBC0DB407FEFDCFAEBC0DB407FEFDCFCD
:100B2000EBCF813009F045C081E0C81AD108E10857
:100B3000F1088FEFC816D806E806F80609F469C070
:100B40009B2D88E0E9A1FAA1208197FF2CC03DA14F
:100B5000232B2083EBA1FCA120813FA1232B208309
:100B6000EBA1FCA1208138A523232083990F81507C
:100B700049F79A2D88E0E9A1FAA1208197FF16C0D4
:100B80003DA1232B2083EBA1FCA120813FA1232B9E
:100B90002083EBA1FCA1208138A523232083990F7A
:100BA000815049F7C1CF3EA12323D3CF3EA12323B8
:100BB000E9CFBA1016C0CC0CDD1CEE1CFF1CEF8D6B
:100BC000F8A1B08281E0C81AD108E108F1088FEFDE
:100BD000C816D806E806F806E1F0CE010E945F04C8
:100BE000F1CF81E0C81AD108E108F1088FEFC816EB
:100BF000D806E806F80669F0EF8DF8A1B082CE01BC
:100C00000E945F04EF8DF8A1A082CE010E945F04D4
:100C1000E8CFDF91CF911F910F91FF90EF90DF9080
:100C2000CF90BF90AF909F908F9008958F929F929A
:100C3000AF92BF92CF92DF92EF92FF920F931F93EA
:100C4000CF93DF934C01EB016A01590137FF07C0D5
:100C5000C9010196C80FD91FB194A194B108F4013C
:100C6000A085B185CA17DB070CF058C017FF07C075
:100C7000C8010196C80ED91E119501951109F401FC
:100C800082859385C816D9060CF048C0FE01EA0D8E
:100C9000FB1DAF014150510957FD40C0B601600F27
:100CA000711F9B012150310937FD38C0D7FF03C0A8
:100CB0005F01D0E0C0E0D7FE03C08B01D12CC12C76
:100CC0004A175B071CF05D01AC1ABD0A28173907EB
:100CD0001CF08C010C191D09D401ED91FC910284CA
:100CE000F385E02DC40109959501A601BE01C4015B
:100CF0000E945805D401ED91FC910688F789E02DFA
:100D0000C401DF91CF911F910F91FF90EF90DF9081
:100D1000CF90BF90AF909F908F900994DF91CF912B
:100D20001F910F91FF90EF90DF90CF90BF90AF9009
:100D30009F908F900895EF92FF920F931F9321152C
:100D4000310529F00115110511F00E9416061F91B9
:100D50000F91FF90EF9008958F929F92AF92BF9264
:100D6000CF92DF92EF92FF920F931F93CF93DF9377
:100D70005C014B016A01E90177FD52C0DC01189664
:100D80008D919C91681779070CF04AC0209709F45F
:100D900047C037FF07C0C9010196C80ED91ED195BB
:100DA000C195D109F50182859385C816D906C4F588
:100DB000A6014C0F5D1F9A012150310937FD30C04B
:100DC000D7FE03C0EA01D12CC12C281739071CF02B
:100DD000EC01CC19DD09D501ED91FC910284F3857C
:100DE000E02DC501099578018E0121E030E0A601D2
:100DF000B401C5010E945805D501ED91FC9106880A
:100E0000F789E02DC501DF91CF911F910F91FF90E0
:100E1000EF90DF90CF90BF90AF909F908F9009940C
:100E2000DF91CF911F910F91FF90EF90DF90CF90C6
:100E3000BF90AF909F908F9008958F929F92AF92A6
:100E4000BF92CF92DF92EF92FF920F931F93CF93B7
:100E5000DF935C016B014A01E90157FD52C0DC01DF
:100E60001A968D919C91481759070CF04AC020970B
:100E700009F447C037FF07C0C9010196C80ED91E43
:100E8000D195C195D109F50180859185C816D906FE
:100E9000C4F5A6014C0F5D1F9A012150310937FDA1
:100EA00030C0D7FE03C0EA01D12CC12C2817390766
:100EB0001CF0EC01CC19DD09D501ED91FC91028407
:100EC000F385E02DC5010995780101E010E09E0150
:100ED000A401B601C5010E945805D501ED91FC9110
:100EE0000688F789E02DC501DF91CF911F910F9101
:100EF000FF90EF90DF90CF90BF90AF909F908F903A
:100F00000994DF91CF911F910F91FF90EF90DF90A7
:100F1000CF90BF90AF909F908F900895EF92FF92E7
:100F20000F931F93CF93DF9377FD32C0DC011896A8
:100F3000ED91FC916E177F075CF52115310541F1AC
:100F400037FF07C0F90131964E0F5F1F319521958C
:100F50003109DC011A96ED91FC914E175F07C4F43C
:100F6000EA01C20FD31FDE011197B7FD11C057FF71
:100F700003C09E0150E040E0AE17BF071CF09F0188
:100F8000241B350B7801890121E030E00E945805CF
:100F9000DF91CF911F910F91FF90EF900895EF9205
:100FA000FF920F931F93CF93DF9357FD31C0DC0166
:100FB0001A96ED91FC914E175F0754F521153105F6
:100FC00039F137FF07C0F90131966E0F7F1F319558
:100FD00021953109DC011896ED91FC916E177F0780
:100FE000BCF4EB01C20FD31FDE011197B7FD10C097
:100FF00077FF03C09E0170E060E0AE17BF071CF0F2
:101000009F01261B370B780101E010E00E94580574
:10101000DF91CF911F910F91FF90EF9008958F92E4
:101020009F92AF92BF92CF92DF92EF92FF920F9377
:101030001F93CF93DF9347012115310509F44BC06E
:101040000115110509F447C037FF07C0F9013196B2
:101050006E0F7F1F319521953109DC011896AD90F7
:10106000BC906A157B05BCF517FF07C0F8013196E7
:101070004E0F5F1F119501951109DC011A96ED9134
:10108000FC914E175F073CF56B01C20ED31EE601C3
:101090002197D7FD20C07A01E00EF11ED7011197EC
:1010A000B7FD19C077FF03C0960170E060E057FFFD
:1010B00003C0870150E040E0CA15DB051CF0950134
:1010C000261B370BAE17BF071CF08F01041B150B37
:1010D00074010E945805DF91CF911F910F91FF90ED
:1010E000EF90DF90CF90BF90AF909F908F9008953A
:1010F000EF92FF920F931F93CF93DF93EC0177FD55
:1011000022C08885998568177907ECF457FD1BC0C4
:101110008A859B8548175907B4F47901E881F981DC
:1011200002A4F3A5E02D01E010E021E030E0CE01C3
:101130000995B701CE01DF91CF911F910F91FF90DB
:10114000EF900C946D04DF91CF911F910F91FF9060
:10115000EF900895FC0187A987FD06C0A38DB48D8B
:101160009C9181A9892B8C9308958CBD9DBD089578
:101170001F93CF93DF93EC01162F8DA9811104C02B
:1011800089A19AA10E94B5088FA987FD06C0EB8DA1
:10119000FC8D80819AA989238083ED8DFE8D8081CD
:1011A0009CA989238083612FCE010E94B204ED8D1A
:1011B000FE8D80819BA9892B80838FA987FD06C026
:1011C000EB8DFC8D808199A9892B8083DF91CF9154
:1011D0001F910895EF92FF920F931F93CF93DF9388
:1011E0007C01162F603608F01FE5D42F403408F03C
:1011F000DFE321500150040FC22FC60FC03608F0A4
:10120000CFE5003408F00FE3C11718F4812F1C2F2D
:10121000C82F0D1718F48D2FD02F082F65E1C701A7
:101220000E94B808612FC7010E94B8086C2FC7013F
:101230000E94B80865E7C7010E94B8086D2FC70172
:101240000E94B808602FC7010E94B808D701ED912D
:10125000FC910284F385E02DC701DF91CF911F91AE
:101260000F91FF90EF900994CF93DF93EC018DA93C
:10127000811104C089A19AA10E94B5088FA987FD98
:1012800006C0EB8DFC8D80819AA989238083DF9134
:10129000CF9108950895FC016370668B84819581D8
:1012A00026813781613039F0633029F0918780875A
:1012B000338722870895318720879387828708950F
:1012C0002F923F924F925F926F927F928F929F9256
:1012D000AF92BF92CF92DF92EF92FF920F931F9344
:1012E000CF93DF93CDB7DEB76A970FB6F894DEBF22
:1012F0000FBECDBF9A8F898F7A8369834A01D22E20
:1013000018870F833701BC2CDC0159962D913C9135
:101310005A972115310509F015C118968D919C91A8
:101320001997681779070CF0D7C11A968D919C917F
:10133000481759070CF0D0C14C2C512CB6E0CB9E6D
:10134000600D711D11247C876B87161617060CF033
:10135000C3C1EA2DF0E0FA87E98793E0EE0FFF1FA3
:101360009A95E1F7F88BEF87CF01840F951F181638
:1013700019060CF0B1C1A98DBA8D58968C918111C6
:1013800004C0BFEABD1508F4D394A98DBA8DED91C0
:10139000FC9111970284F385E02DCD010995B5E00C
:1013A000DB9EC0011124E981FA81FC83EB83312C9F
:1013B000212C9C0128593F4F388F2F8B4A2D50E00C
:1013C0005E8B4D8BEF89F88DE20DF31D44919E826B
:1013D0008D82D12CC12C69817A81620D731D7A8B2B
:1013E000698B842F90E09C8B8B8BE98DFA8DA0818B
:1013F000B18140FF82C0F1E0BF126FC0AF126DC07B
:101400001C96ED91FC912F813885A4014C0D5D1D3A
:1014100069897A89898D9A8D0995EB89FC89F59579
:10142000E7954E2F5FEFC51AD50A6D817E818D89B4
:101430009E89680F791F7E836D8398E0C916D10459
:1014400081F6AFEF2A1A3A0AEB81FC81E40DF51D13
:10145000FC83EB83F5E02F16310409F0B3CF2F8125
:10146000388526153705B9F0A98DBA8DED91FC9117
:10147000B1E0BB1257C0AB1255C069817A816B5F76
:101480007F4F0088F189E02D830128E030E0A4013E
:10149000898D9A8D0995A98DBA8DED91FC91119741
:1014A0000688F789E02DCD016A960FB6F894DEBF65
:1014B0000FBECDBFDF91CF911F910F91FF90EF90A5
:1014C000DF90CF90BF90AF909F908F907F906F9064
:1014D0005F904F903F902F9009941E96ED91FC9154
:1014E000EF80F88409851A8592014D815E816B81B8
:1014F0007C81898D9A8D099590CF2F81388526150D
:10150000370509F48ACF31E0B31207C0A31205C032
:101510001C96ED91FC91930178CF1E96ED91FC9174
:101520007301E0CF6B857C85641975090684F785A6
:10153000E02D73010F8518899201A401898D9A8D80
:101540000995A9CFF9013496949132974591549118
:10155000D91AB7E0DB9E400D511D1124F9012591E8
:1015600034913C8B2B8BFA0125903490FA01329602
:10157000749031963491398B3296649031964490C0
:1015800041E04C1518F04A1508F07FC0662D062C76
:10159000000C770B7C836B83842D042C000C990B3F
:1015A0009E838D83A98DBA8DED91FC911197028454
:1015B000F385E02DCD010995512CD12CC12CEA2DBC
:1015C000F0E0FA87E9872B2D30E03C872B87A401D8
:1015D000440D511D47FC5A95588F4F8B69817A8174
:1015E000660D711D67FC7A957E876D877989C716B0
:1015F00008F051CF2C2D30E04D815E81420F531FFA
:10160000A985BA854A9FC0014B9F900D5A9F900DA6
:101610001124FC01E80DF91DF88BEF87852D612C55
:101620004F89588D420F531F5E8B4D8B671408F006
:1016300050C044244394480E877041F4C101019680
:10164000EB89FC89E20DF31DD4901C01D7FE19C073
:10165000A98DBA8DED91FC91662D70E0B1E0BB12C1
:1016600019C0AB1217C02D853E85620F731F04840D
:10167000F585E02D2F8138854D895E89898D9A8D7C
:101680000995DD0C6394842DD1CF1E821D821C82AE
:101690001B8288CF4B815C81640F751FAB85BC8535
:1016A0006A9FC0016B9F900D7A9F900D11246981F4
:1016B0007A81680F791F0684F785E02DEF80F88422
:1016C00009851A859D014F855889898D9A8D0995BF
:1016D000D8CF570CC3948ACF6A960FB6F894DEBF62
:1016E0000FBECDBFDF91CF911F910F91FF90EF9073
:1016F000DF90CF90BF90AF909F908F907F906F9032
:101700005F904F903F902F9008958F929F92AF924D
:10171000CF92EF92FF920F931F93CF93DF93EC0141
:10172000262F898D9A8D009709F051C06A30D1F427
:101730001D861C868D8948E0849F900111248E852A
:101740009F85820F931F9F878E8781E090E0DF91B6
:10175000CF911F910F91FF90EF90CF90AF909F90FE
:101760008F9008956D3089F3CC88AD888F89882358
:10177000C1F08C859D8536E0C39E800D911D11249E
:10178000488559854817590764F44E855F851D863D
:101790001C8638E0A39EC0011124840F951F9F87EB
:1017A0008E87EA88FB88088919894E855F856C8554
:1017B0007D85CE010E9460092C898C859D8546E03F
:1017C000249F800D911D11249D878C87BECF6A3088
:1017D00069F41D861C86FC013896E4912D898E855E
:1017E0009F85E29F800D911D1124ADCF6D3009F4CE
:1017F000ACCFFC0134963491631708F4A6CF32962F
:10180000E491E61708F4A1CFFC01329685909490FC
:10181000462F431B342F47E0349F800C911C11242A
:10182000F401329634913196E4913323A9F1EE23F9
:1018300099F1CC88F4013596E491AD884F89442321
:1018400001F10E2E000CFF0BE30FF11DCE9EA00147
:10185000CF9E500D11246C857D85460F571F6885DE
:101860007985641775076CF44E855F851D861C8627
:10187000FC013896E491AE9E400D511D11245F8706
:101880004E87EA88FB88088919894E855F856C85B3
:101890007D85CE010E946009F4013496E4912C8983
:1018A0008C859D85E29F800D911D11248DCF6F92B7
:1018B0007F928F929F92AF92BF92CF92DF92EF92E0
:1018C000FF920F931F93CF93DF93EC016B015A01AB
:1018D00039014801E881F9810284F385E02D0995F9
:1018E000E881F9810288F389E02D87019301A50140
:1018F000B601CE010995A501480D591D4150510968
:10190000E881F9810288F389E02D9301B601CE01C7
:101910000995E881F9810088F189E02D9401A501FC
:10192000B601CE010995C60CD71CB60161507109EC
:10193000E881F9810088F189E02D9401A501CE01AB
:101940000995E881F9810688F789E02DCE01DF91BC
:10195000CF911F910F91FF90EF90DF90CF90BF90AC
:10196000AF909F908F907F906F9009946F927F922D
:101970008F929F92AF92BF92CF92DF92EF92FF929F
:101980000F931F93CF93DF935C01EB016A01490131
:1019900038018701DC01ED91FC916217730719F59D
:1019A000641675062CF0962D872D3A01C92ED82E77
:1019B0009601261937092F5F3F4F048CF58DE02DD6
:1019C000A301BE01C5010995DF91CF911F910F9130
:1019D000FF90EF90DF90CF90BF90AF909F908F904F
:1019E0007F906F9008954615570591F42617370795
:1019F00024F0892D4B01C22FD82F9E0128193909B7
:101A00002F5F3F4F068CF78DE02DA601B401DACF92
:101A10000284F385E02D0995D501ED91FC910488B0
:101A2000F589E02D83019401A601BE01C501099548
:101A3000D501ED91FC910688F789E02DC501DF9174
:101A4000CF911F910F91FF90EF90DF90CF90BF90BB
:101A5000AF909F908F907F906F900994EF92FF923C
:101A60000F931F93DC011A960D911C911B971896EA
:101A70002D913C911997ED91FC9100A0F1A1E02DE1
:101A80007B0150E040E070E060E009951F910F910C
:101A9000FF90EF9008954F925F926F927F928F9296
:101AA0009F92AF92BF92CF92DF92EF92FF920F93ED
:101AB0001F93CF93DF936C012B015A013901480129
:101AC000DC01ED91FC910284F385E02D0995E201A2
:101AD000640C751CD601ED91FC91C615D7055CF41C
:101AE0000088F189E02D87019401A501BE01C6019E
:101AF00009952196EFCF0688F789E02DC601DF9181
:101B0000CF911F910F91FF90EF90DF90CF90BF90FA
:101B1000AF909F908F907F906F905F904F900994BF
:101B20008F929F92AF92BF92CF92DF92EF92FF92ED
:101B30000F931F93CF93DF93EC015B014A0169017F
:101B4000E881F9810284F385E02D099595012C0D3A
:101B50003D1D21503109E881F9810488F589E02D86
:101B600078018401A401B501CE010995E881F981CC
:101B70000688F789E02DCE01DF91CF911F910F915B
:101B8000FF90EF90DF90CF90BF90AF909F908F909D
:101B900009948F929F92AF92BF92CF92DF92EF9271
:101BA000FF920F931F93CF93DF93EC015B014A01E8
:101BB00069017801E881F9810284F385E02D0995B6
:101BC000C80CD91C860101501109E881F9810488EB
:101BD000F589E02D9501A401B501CE010995E881B3
:101BE000F9810688F789E02DCE01DF91CF911F9111
:101BF0000F91FF90EF90DF90CF90BF90AF909F90AC
:101C00008F900994EF92FF920F931F93DC01ED9157
:101C1000FC9100A0F1A1E02D09951F910F91FF907B
:101C2000EF9008950F931F93DC01ED91FC91068CCA
:101C3000F78DE02D09951F910F9108950F931F9334
:101C4000DC01ED91FC91048CF58DE02D09951F913F
:101C50000F910895DC01ED91FC910084F185E02D58
:101C600009942F923F924F925F926F927F928F9240
:101C70009F92AF92BF92CF92DF92EF92FF920F931B
:101C80001F93CF93DF9300D000D000D0CDB7DEB745
:101C90003C016A013E832D83FC82EB825801A41A29
:101CA000B50AB7FE03C0B194A194B1088D809E809F
:101CB000861A970A97FE03C09194819491088A141A
:101CC0009B045CF0902F812F0D811E819D838E835C
:101CD0009C2D8D2D6B01692F782F0C151D055CF047
:101CE0009D818E817E836D83692F782F902F812F28
:101CF0008601C92ED82E1601201A310A2B012D81FA
:101D00003E81421A530A57FE03C051944194510830
:101D1000710137FE03C03FEFE31AF30AF594E7942D
:101D20008D819E81861797075CF5A1E0B0E0BA83AC
:101D3000A983C016D1064CF1D301ED91FC91048426
:101D4000F585E02D2B813C81A8016D817E818A146F
:101D50009B041CF04D815E81B801C3010995E41814
:101D6000F508F7FE0AC02D813E8189819A81280FEE
:101D7000391F3E832D83E20CF31C0F5F1F4FD9CF19
:101D80002FEF3FEF3A832983D4CF26960FB6F894EE
:101D9000DEBF0FBECDBFDF91CF911F910F91FF909E
:101DA000EF90DF90CF90BF90AF909F908F907F90FB
:101DB0006F905F904F903F902F900895089590E01E
:101DC00080E00895FC0101900020E9F73197AF0110
:101DD000481B590BBC0185EC91E00C9407030E9451
:101DE00068141F93CF93DF9385ED8093BC0080919F
:101DF0004D0190914E01A0914F01B0915001079675
:101E0000A11DB11D23E0B695A795979587952A95B5
:101E1000D1F72091BC0024FD03C01092950152C05F
:101E200040914D0150914E0160914F0170915001D0
:101E3000452B462B472B69F30097A105B10541F0CF
:101E400025E32A95F1F700000197A109B109E1CF37
:101E500080914C01C1E0C0934B01882399F1D0914E
:101E6000B8001091BA008091BC008A7B8093BC00BE
:101E700060E082E10E94340360E083E10E94340369
:101E800010929501C09397011092960161E082E152
:101E90000E94340361E083E10E9434038091B90021
:101EA0008E7F8093B9008091B9008D7F8093B900B7
:101EB00088E48093B80085E48093BC001093BA0056
:101EC000D093B800DF91CF911F910895CF92DF9208
:101ED000EF92FF920F931F93CF93DF93EC016A0170
:101EE0007B01C114D104E104F10431F4C12C42E1BD
:101EF000D42E4AE7E42EF12C8FA987FD07C061E0BC
:101F00000E94800361E08FA90E94340361E088ADE4
:101F10000E94800361E088AD0E9434038DA9811185
:101F200018C140E052E16AE770E0C416D506E60643
:101F3000F70640F476956795579547958F5F8630FD
:101F4000A1F787E0982F906A969599A38095817064
:101F50008AA31BA21CA21DA21EA21FB7F8948091E7
:101F60004901811127C0EEEAF5E08491E0E9F5E04E
:101F70009491E82FF0E0EE0FFF1FE859FA4FA5917A
:101F8000B491EC91E92321F461E08AE00E943403EA
:101F900061E08AE00E9480038CB580618CBD8CB5C5
:101FA00080648CBD61E08DE00E94800361E08BE085
:101FB0000E948003809149018F5F809349011FBF78
:101FC0008EA987FD21C061E00E94800361E08EA997
:101FD0000E94340364E670E080E090E00E94D60343
:101FE00060E08EA90E94340364E670E080E090E037
:101FF0000E94D60361E08EA90E94340368EC70E071
:1020000080E090E00E94D6036EEACE010E94B808FC
:1020100060EACE010E94B80862E7CE010E94B808CB
:1020200061EACE010E94B80860E0CE010E94B808C3
:1020300062EACE010E94B80860E0CE010E94B808B2
:1020400064EACE010E94B80868EACE010E94B8088E
:102050006FE3CE010E94B8086DEACE010E94B80875
:102060006EE8CE010E94B80860EBCE010E94B8086D
:102070006BE0CE010E94B80861EBCE010E94B80867
:1020800061E3CE010E94B80863EBCE010E94B8085C
:1020900060EFCE010E94B8086AE8CE010E94B8083D
:1020A00064E6CE010E94B8086BE8CE010E94B80831
:1020B00068E7CE010E94B8086CE8CE010E94B8081B
:1020C00064E6CE010E94B8086BEBCE010E94B8080E
:1020D0006AE3CE010E94B8086EEBCE010E94B808F8
:1020E0006EE3CE010E94B80867E8CE010E94B808EE
:1020F00066E0CE010E94B80861E8CE010E94B808EF
:1021000061E9CE010E94B80862E8CE010E94B808D9
:1021100060E5CE010E94B80863E8CE010E94B808CD
:102120006DE7CE010E94B8086FEACE010E94B808A0
:1021300080E690E09987888780E490E09B878A8793
:10214000DF91CF911F910F91FF90EF90DF90CF9093
:10215000089504EA15E0F12C8130B9F461E08AA514
:102160000E94800360E08AA50E94340361E08CA590
:102170000E94800360E08CA50E9434038BA587FD3C
:102180001FCF60E00E9480031BCFF8018491E82FED
:10219000F0E0EE0FFF1FE656FA4F859194912F8DD8
:1021A00038A12817390741F461E08F2D0E94800380
:1021B00060E08F2D0E943403F3940F5F1F4FF4E112
:1021C000FF12E3CF61E08EA50E94800361E08EA53F
:1021D0000E9434038FA587FDF3CE61E00E94800347
:1021E00061E08FA50E943403EBCE1F920F920FB6D1
:1021F0000F9211242F933F938F939F93AF93BF938D
:102200008091BC019091BD01A091BE01B091BF0130
:102210003091BB0123E0230F2D3758F50196A11D06
:10222000B11D2093BB018093BC019093BD01A0938D
:10223000BE01B093BF018091C0019091C101A091F6
:10224000C201B091C3010196A11DB11D8093C001CF
:102250009093C101A093C201B093C301BF91AF910C
:102260009F918F913F912F910F900FBE0F901F90D4
:10227000189526E8230F0296A11DB11DD2CF1F92FB
:102280000F920FB60F9211242F933F934F935F93AA
:102290006F937F938F939F93AF93BF93EF93FF932E
:1022A0008091B900887F803609F44AC0F0F5883201
:1022B00009F4A5C018F5803109F499C0B8F4882351
:1022C00009F4F5C0883009F492C0FF91EF91BF91F5
:1022D000AF919F918F917F916F915F914F913F91BE
:1022E0002F910F900FBE0F901F901895883109F411
:1022F00086C0803251F78093940114C0803409F471
:102300009BC040F48033B9F38833F9F6809394018D
:1023100085ECAEC0803509F483C0883509F494C0DB
:10232000883499F60E94F10ED0CF883909F48AC01A
:1023300038F5883729F050F4883611F0803729F6BF
:1023400083E0809395011092930155C0883809F479
:1023500079C0803919F0803809F0B7CF80919301A6
:10236000803208F06FC0E091930181E08E0F80937E
:1023700093018091BB00F0E0ED58FE4F80833BC09D
:10238000803B39F0D0F4803A09F477C0883A09F0FC
:102390009CCF84E08093950110927201109271019C
:1023A000F0E0E0E009958091710181110FC081E0BA
:1023B000809371011092510109C0803C09F4A8CFAB
:1023C000883C09F4A5CF883B09F07FCFE0917201EA
:1023D00081E08E0F80937201F0E0EF5AFE4F808112
:1023E0008093BB00909172018091710129C080910E
:1023F000BA018093BB0085EC8093BC0066CF9091BE
:10240000B9018091B801981758F5E091B90181E0C0
:102410008E0F8093B901F0E0E856FE4F8081E9CF3E
:10242000E091B90181E08E0F8093B9018091BB00EA
:10243000F0E0E856FE4F80839091B9018091B80199
:102440009817C8F285E8D8CFE091B90181E08E0FE6
:102450008093B9018091BB00F0E0E856FE4F808385
:102460008091970181115ECF81E08093960184EA8B
:102470008093BC001092950128CF85EC8093BC001E
:102480001092950180919301803230F4E091930194
:10249000F0E0ED58FE4F10826091930170E083E709
:1024A00091E0F0E0E0E00995109293010ECF1092D8
:1024B000940138CFA5ECB1E013961C921E921297AE
:1024C00020E630E015963C932E93149780E490E03C
:1024D00017969C938E93169719963C932E93189764
:1024E0001B969C938E931A9756961C9256971D9600
:1024F0001C921E921C971F961C921E921E9781E0A2
:1025000055968C93559754968C9354972FEF3FEF95
:1025100053963C932E93529751963C932E935097FB
:1025200057968C93579758961C9258975A961C9288
:102530001E925997D5961C92D59789E0D6968C9382
:10254000D6978AE0D7968C93D79788E0D8968C93C5
:10255000D897DA961C921E92D997DC961C921E92FE
:10256000DB97DD961C92DD97DE961C92DE9710922B
:10257000040210920502109206021092070284ECE7
:1025800091E090969C938E935F97ECEAF5E0E4914E
:10259000F0E0EE0FFF1FE656FA4F859194915E969C
:1025A0009C938E935D97EEE8F5E08491D3968C939F
:1025B000D397EEEAF5E0E491F0E0EE0FFF1FE65668
:1025C000FA4F259134915C963C932E935B97E0E90A
:1025D000F5E0E491D196EC93D197E095D296EC9307
:1025E000D297E82FE095D496EC93D49784E091E0CD
:1025F0008D939C930895789484B5826084BD84B54E
:10260000816084BD85B5826085BD85B5816085BDED
:1026100080916E00816080936E00109281008091A5
:10262000810082608093810080918100816080932D
:102630008100809180008160809380008091B10052
:1026400084608093B1008091B00081608093B0007D
:1026500080917A00846080937A0080917A00826011
:1026600080937A0080917A00816080937A008091D3
:102670007A00806880937A001092C10040E052E1B5
:102680006AE770E085EC91E00E94660F60E078EF09
:1026900085EC91E00E942E0D6CE271E080E090E00C
:1026A0000E94D60360EE77E085EC91E00E942E0D4B
:1026B0006CE271E080E090E00E94D6036FE170E090
:1026C00085EC91E00E942E0D6CE271E080E090E0DC
:1026D0000E94D60370E060E085EC91E00E942E0D30
:1026E00068EE73E080E090E00E94D60394E1C92E8A
:1026F000D12CD092D201C092D10185E090E090938C
:10270000D4018093D301CFEFDFEFD093D801C093F2
:10271000D701D093D601C093D50112E01093D9010F
:102720001093DA0180E391E00E94E20E88E090E0ED
:102730009093D2018093D10189E190E09093D401EC
:102740008093D30180E098EF9093D8018093D701D4
:102750009093D6018093D5011093D9011093DA019B
:1027600086E391E00E94E20EE12C28EFF22E04E1D4
:1027700010E02BE430E048E250E06AE070E085ECE5
:1027800091E00E941606D092D201C092D1018FE250
:1027900090E09093D4018093D301D093D801C0935B
:1027A000D701D093D601C093D50181E08093D901A0
:1027B0008093DA018EE391E00E94E20EEE24EA9427
:1027C000FE2C00E410E020E630E050E040E070E055
:1027D00060E085EC91E00E94570C68EE73E080E0C9
:1027E00090E00E94D6034FE2A42EB12CDD24D394B6
:1027F00050E0852E50E0952EF12CE12C04E110E004
:102800002BE430E048E250E06AE070E085EC91E0D3
:102810000E94160668EE73E080E090E00E94D60306
:10282000E12C88EFF82E2BE430E048E250E06AE03B
:1028300070E085EC91E00E94160684E190E09093B0
:10284000D2018093D101B092D401A092D301D09350
:10285000D801C093D701D093D601C093D501D092AF
:10286000D901D092DA018EE391E00E94E20E68EE87
:1028700073E080E090E00E94D6038114910409F493
:10288000BBCF0E940000B8CF0E944C14332312F437
:102890008A1B9B0B0C945D14A29FB001B39FC001D7
:1028A000A39F700D811D1124911DB29F700D811D7C
:1028B0001124911D08950E944C14B7FF0895821BA6
:1028C000930B0895EE0FFF1F0590F491E02D0994EE
:0E28D00081E090E0F8940C946D14F894FFCF22
:1028DE0000000000850B0703DF0EDE0E080534092D
:1028EE0078080F088E07CF07310EAA084B09DF04B0
:1028FE00AC061D079B062E0DB60C570C660FEA088C
:10290E0048656C6C6F00596F755455424500537590
:08291E006273637269626500D7
:00000001FF
